:020000040000FA
:020000000328D3
:040002000034003492
:0A0006008316F030860000308900F8
:10001000F83088000030870083122030B3234D3041
:10002000B3234930B3234330B3235230B3234F308B
:10003000B3235330B3232D30B3233530B3233030C3
:10004000B3233130B3234330B3234930B323423099
:10005000B323D923D923D923862386238623433068
:10006000B3234C30B3234130B3235630B323453050
:10007000B3233A30B3230A30C1000130B20002305A
:10008000C4000330C5000430C6000530C700063088
:10009000C8000730C9000830D0000A30B3000A3069
:1000A000C0000A30C2000A30C3000A30D1000A3052
:1000B000D2000A30D3000A30D4000F21D9233308EC
:1000C000410203195D28D9235E21D923400841024A
:1000D00003196428D923AC21D9234208410203190A
:1000E0006B28D923FB21D923430841020319722825
:1000F000D9234A22D9235108410203197928D92347
:100100009922D9235208410203198028D923E822D1
:10011000D9235308410203198728D9233723D92328
:100120005408410203198E28D923330832020319D7
:100130009A28DF204008440203199F28DF20420844
:1001400045020319A428DF20430846020319A92801
:10015000DF20510847020319AE28DF205208480269
:100160000319B328DF20530849020319B828DF20F8
:10017000540850020319BD20DF20862386238623DE
:100180004330BD234C30BD234130BD235630BD2309
:100190004530BD232030BD234330BD234F30BD2328
:1001A0005230BD235230BD234530BD234330BD23E3
:1001B0005430BD234130BD2301308900DE28862321
:1001C000862386234330BD234C30BD234130BD23DD
:1001D0005630BD234530BD232030BD234930BD23DB
:1001E0004E30BD234330BD234F30BD235230BD239D
:1001F0005230BD234530BD234330BD235430BD2391
:100200004130BD2302308900D923D923D923D923F2
:10021000D923D923D923D923003089008C2306146C
:10022000051A8C23051B3121061B4021861B4F21FB
:1002300006108614051A2C21051B3621061B4521A4
:10024000861B542186100615051B3B21061B4A21DF
:10025000861B5921061108000030B3003030BD2341
:1002600008000130B3003130BD2308000230B30074
:100270003230BD2308000330B3003330BD23080003
:100280000430B3003430BD2308000530B3003530EE
:10029000BD2308000630B3003630BD230800073008
:1002A000B3003730BD2308000830B3003830BD2319
:1002B00008000930B3003930BD2308000614051AC0
:1002C0008C23051B7F21061B8E21861B9D2106107A
:1002D0008614051A051B8421061B9321861BA22167
:1002E00086100615051B8921061B9821861BA72150
:1002F000061108000030C0003030BD230800013076
:10030000C0003130BD2308000230C0003230BD23B0
:1003100008000330C0003330BD2308000430C000A3
:100320003430BD2308000530C0003530BD2308003F
:100330000630C0003630BD2308000730C00037301B
:10034000BD2308000830C0003830BD230800093044
:10035000C0003930BD2308000614051A8C23051B84
:10036000CE21061BDD21861BEC2106108614051A02
:10037000C921051BD321061BE221861BF121861012
:100380000615051BD821061BE721861BF621061141
:1003900008000030C2003030BD2308000130C20028
:1003A0003130BD2308000230C2003230BD230800C6
:1003B0000330C2003330BD2308000430C2003430A3
:1003C000BD2308000530C2003530BD2308000630CB
:1003D000C2003630BD2308000730C2003730BD23CD
:1003E00008000830C2003830BD2308000930C200C0
:1003F0003930BD2308000614051A8C23051B1D2265
:10040000061B2C22861B3B2206108614051A182276
:10041000051B2222061B3122861B40228610061550
:10042000051B2722061B3622861B452206110800C3
:100430000030C3003030BD2308000130C30031302C
:10044000BD2308000230C3003230BD230800033052
:10045000C3003330BD2308000430C3003430BD2353
:1004600008000530C3003530BD2308000630C30046
:100470003630BD2308000730C3003730BD230800E5
:100480000830C3003830BD2308000930C3003930BC
:10049000BD2308000614051A8C23051B6C22061BBD
:1004A0007B22861B8A2206108614051A6722051BEA
:1004B0007122061B8022861B8F2286100615051BC3
:1004C0007622061B8522861B942206110800003026
:1004D000D1003030BD2308000130D1003130BD23C0
:1004E00008000230D1003230BD2308000330D100B3
:1004F0003330BD2308000430D1003430BD23080060
:100500000530D1003530BD2308000630D10036302B
:10051000BD2308000730D1003730BD230800083064
:10052000D1003830BD2308000930D1003930BD2357
:1005300008000614051A8C23051BBB22061BCA22C1
:10054000861BD92206108614051AB622051BC02266
:10055000061BCF22861BDE2286100615051BC52230
:10056000061BD422861BE322061108000030D200AD
:100570003030BD2308000130D2003130BD230800E7
:100580000230D2003230BD2308000330D2003330B5
:10059000BD2308000430D2003430BD2308000530EC
:1005A000D2003530BD2308000630D2003630BD23DE
:1005B00008000730D2003730BD2308000830D200D1
:1005C0003830BD2308000930D2003930BD2308007F
:1005D0000614051A8C23051B0A23061B1923861BE8
:1005E000282306108614051A0523051B0F23061B56
:1005F0001E23861B2D2386100615051B1423061BA0
:100600002323861B3223061108000030D30030302C
:10061000BD2308000130D3003130BD230800023073
:10062000D3003230BD2308000330D3003330BD2364
:1006300008000430D3003430BD2308000530D30057
:100640003530BD2308000630D3003630BD23080006
:100650000730D3003730BD2308000830D3003830CE
:10066000BD2308000930D3003930BD23080006142B
:10067000051A8C23051B5923061B6823861B772329
:1006800006108614051A5423051B5E23061B6D23D2
:10069000861B7C2386100615051B6323061B72230D
:1006A000861B8123061108000030D4003030BD23A2
:1006B00008000130D4003130BD2308000230D400DE
:1006C0003230BD2308000330D4003330BD2308008E
:1006D0000430D4003430BD2308000530D400353058
:1006E000BD2308000630D4003630BD230800073093
:1006F000D4003730BD2308000830D4003830BD2383
:1007000008000930D4003930BD2308000130C72368
:10071000B501B601B70108008623862386230A3077
:10072000B3000A30C0000A30C2000A30C3000A30E9
:10073000D1000A30D2000A30D3000A30D400CE23D0
:100740002F280A30B3000A30C0000A30C2000A3035
:10075000C3000A30D1000A30D2000A30D3000A3078
:10076000D400CE232F28081488100815C72338304A
:10077000C7230C30C7230814080008148810081574
:10078000C7233830C7230F30C72308140800870059
:100790000811CE230815CE23081008000D30B8002C
:1007A000C830B900B90BD22BB80BD22B0800080007
:1007B000080000009630B100B10BDC2B2A30A000FD
:1007C00000003C30A1000F30B0000000B00BE52B62
:0A07D000A10BE32BA00BE02B0800A7
:02400E00F42C90
:02401000FF3F70
:00000001FF
